:1081000040100020CD2F0100C7300100891F010061
:10811000000000000000000000000000000000005F
:10812000000000000000000000000000C930010055
:108130000000000000000000CB300100CD30010045
:10814000CF3001005D220100D1300100D3300100A9
:10815000D5300100D7300100D9300100DB300100FB
:10816000DD300100DF300100E1300100E3300100CB
:10817000E5300100E7300100E9300100EB3001009B
:10818000ED300100EF300100F1300100F33001006B
:10819000F5300100F7300100F9300100FB3001003B
:1081A000DB1B0100FD300100FF3001000131010047
:1081B0000331010005310100DF10010095A400002A
:1081C000F8B4EFF3108172B6784D2C18002213002A
:1081D000237243010093764B009E9E19FF23338048
:1081E0001700B770B280F770C0002818050020355E
:1081F000B560B28132827282B282F2821500357627
:1082000075761D00B576F57615003577F5777577B7
:10821000B5776572AF4C009D641923801300A3707D
:1082200022836377A280E3700C30A060A281228257
:108230006282E282A2821000A076E276207FF022A3
:108240000240227781F31088F1BC704780B557490E
:1082500008600879002801D101200871002002007F
:1082600002E002000A750122002AFAD003E0002091
:10827000FFF7A6FF01200028F9D001BD10B41300BC
:10828000954C002818D1206810305C00E318DB0002
:10829000C05C012801D0022805D10120434B0C000D
:1082A0001B19187204E00020404B0C001B191872B7
:1082B0003F484901425217E0606810309C00E318C3
:1082C0009B00C05C012801D0022805D10120374B5A
:1082D0000C001B19587204E00020344B0C001B19D1
:1082E00058727C484901425210BC7047FEB50600E6
:1082F0000024EFF31080019072B677484268330093
:108300009D00EB189B00D2181588002D01D0012488
:1083100004E0704BDB78002B00D0012423003FD118
:1083200000918988D388994201D2012421E0002953
:1083300001D101241DE00B0080277F01BB4201D346
:10834000012416E0D27B012A09D10720174A5219CD
:10835000527A801AC0B288420BD2012409E08068A8
:10836000405D002805D1BD486901405C002800D06F
:108370000124200014D12800FFF722FF320028003A
:1083800001000120FFF77AFF680152490322CB1C4C
:108390001A5401220B1D1A52009A92880818428220
:1083A000019880F310882000FEBD000030060020F8
:1083B000C4060020F1B584B000263500EFF310802C
:1083C000029072B66846008A02287DD20C00A2880C
:1083D0002168684601F0F0F93F4800686946098A5B
:1083E0004A005118C900411808880A7C012A01D0A6
:1083F000022A0AD101226B461B78097D8B4201D0EB
:10840000110003E03100150000E0310000295BD1CC
:1084100069462A00895CF0220A4006D0102A1FD043
:10842000202A38D0302A47D04EE08D4942018918A1
:108430008C4A0B886F463F8ABB4205D101238B775C
:1084400013181B7A8B7000E08E7711180D72A388B9
:10845000DBB26A4601006846008A00F05BFD33E04B
:108460007F49420189187F4A0B886F463F8ABB4289
:1084700005D101238B7713181B7A8B7000E08E7760
:1084800011180D72A388DBB26A4601006846008AA3
:1084900000F01EFE18E0734909180D726946098A3A
:1084A0006F4A4301D152A388DBB26A460100684695
:1084B000008A00F01FFF07E0A388DBB26A460100D4
:1084C0006846008A01F088F8029880F3108805B0A9
:1084D000F0BD0000E4060020F42F0100002800D0C9
:1084E0007047F8B5604E7068058869015F4A541896
:1084F000E278002A3ED0102A06D0202A0CD0302A5A
:108500001BD0402A00D093E00021084601F076F904
:108510002800FFF755FEF1BD218A0622514B5B1959
:108520005B7AD21AD2B2891821820121E170408986
:10853000052101F0C4F9A080F1BD218A0722494B31
:108540005B195B7AD21AD2B289182182A17E0029E6
:108550000BD0491EA176090607D10121E17040899F
:10856000052101F0ACF9A080F1BD0220E070E07EB1
:10857000A080F1BD3A484418E07800285BD010286C
:1085800006D0202812D030282AD0402843D04FE0EF
:108590000120E070306821884A005118C900401855
:1085A0008089052101F08BF9A080F1BD227E521C4B
:1085B0002276208835682900133103005F00FB18FC
:1085C000DB00C95CD2B28A4217D3082101F048F916
:1085D000208841000818C000285AFFF7F1FDF1BDBE
:1085E000207E401C207631681331228853009A186F
:1085F000D200895CC0B288421AD2607FE0703068D5
:108600000A3021884A005118C900405A052101F05A
:1086100056F9A080F1BD0A21208801F021F93068C7
:1086200021884A005118C900405AFFF7C9FDF1BD21
:108630002800FFF7C5FDF1BD10B50024200003E0C0
:10864000204600F015F801200028F9D003E00020B2
:1086500000F09CFA0124002CF9D010BDC7060020C0
:10866000C406002030060020F42F0100E40600209C
:10867000F8B584B00600EFF31080039072B63500B1
:10868000824869014418E078002800D176E2A08889
:10869000002801D0401EA0808020E17801420DD04A
:1086A000A188002903D1E1784840E07036E0207FBE
:1086B0000107090F300001F011F82FE008460C28DF
:1086C0001AD122001632618A208801F09FF8002812
:1086D0000ED12200163221000831208801F0ABF8BB
:1086E000002800D19BE1022814D10720E07015E09A
:1086F000022800D0A4E011E0072852D1220016324F
:1087000021000831208801F096F8002800D186E188
:10871000022803D00E20E0700020A080A08800284E
:1087200000D02BE2E078002800D127E2012800D118
:10873000F7E102281ED0032800D18AE1042800D1E5
:10874000A4E1052800D1BAE1062800D1D0E107282C
:1087500000D102E2092800D1FFE10E2800D1FCE19E
:10876000102800D1EBE1202800D1E8E1402800D119
:10877000E5E100E21020E070207FF0210140217748
:10878000C0480068083021884A005118C900405A82
:10879000052101F094F8A0800021300000F09EFF38
:1087A000ECE10D285BD122001632618A208801F0AD
:1087B0002DF8002832D1B3480768E08A618A8842E0
:1087C00008D33800113021884A005118C900405C94
:1087D000607607E00721AC4A525D891AC9B201F000
:1087E0006BF86076607EA0763800123021884A00EF
:1087F0005118C900405CE076220016322100083191
:10880000208801F018F8002834D0022840D1082030
:10881000E070A088022800D380E7D6E0022819D1B2
:108820000D20E070A088022800D377E79548006803
:10883000133021884A005118C900405C002802D139
:108840000020A0806AE70D2060770620E0700020FD
:10885000A08063E70420E0700020A0805EE7082885
:108860001BD12200163221000831208800F0E3FFDE
:108870000028CAD106208449495D401AC0B220822E
:108880000220E0700020A08048E700BFC40600205E
:108890000320E0700020A08040E70B2844D1220094
:1088A000163221000831208800F0C5FF0721764AE2
:1088B000525D891AC9B2A181228A521822820122EC
:1088C000E27000281FD1208841000818C0000290E3
:1088D0006C4805680527A088019028000C30029993
:1088E000405A390000F0EBFF0100009128001230DF
:1088F0000299405C390000F0E2FF0099091A0198E2
:108900004018A0800AE7022809D1208A401A208254
:108910000B20E070A088002800D0FFE696E0002041
:10892000A0800E20E070F9E60A286AD122001632F3
:1089300021000831208800F07EFF534847190720A6
:108940003978401AC0B2A081218A081820820225F5
:108950002800E0702200163221000831208800F043
:108960006AFF002822D1E08A618A228A891A89B2A4
:10897000884209D343480068113021884A005118C1
:10898000C900405C607607E007213A78891AC9B2CD
:1089900000F092FF401C6076607EA076E570207F3C
:1089A000F021014021770020A080B7E602281ED1E7
:1089B000208A07213A78891AC9B2401A20820A20EF
:1089C000E070A088022800D3A8E62E480068133083
:1089D00021884A005118C900405C002800D199E65E
:1089E000E07860770520E0700020A08096E6032004
:1089F000E070207FF02101400D4325770020A0800A
:108A00008CE6092800D089E62200163221000831C0
:108A1000208800F010FF618A218200280DD10021FA
:108A2000208800F01DFF1748006821884A0051186F
:108A3000C900405AFFF7C4FB70E6022800D069E67F
:108A40000920E070A088002800D067E60E20E070C2
:108A500064E64020E070207FF021014002200843BE
:108A6000207708480068083021884A005118C9005A
:108A7000405A052100F023FFA0800221300000F0C1
:108A80002DFE7BE0F42F0100380600205020E0701E
:108A9000207FF02101400220084320773A480068F7
:108AA000083021884A005118C900405A052100F0B9
:108AB00006FFA0800221300000F010FE5EE02020C2
:108AC000E070207FF02101400120084320772E48EC
:108AD0000068083021884A005118C900405A052111
:108AE00000F0EDFEA0800121300000F0F7FD45E030
:108AF0003020E070207FF0210140012008432077E2
:108B000021480068083021884A005118C900405A9D
:108B1000052100F0D4FEA0800121300000F0DEFD30
:108B20002CE00421208800F09BFE17480068218873
:108B30004A005118C900405AFFF742FB1EE00221CB
:108B4000208800F08DFE1048006821884A005118E6
:108B5000C900405AFFF734FB10E00A21208800F0DA
:108B60007FFE0948006821884A005118C900405A10
:108B7000FFF726FB02E03000FFF722FB039880F3AB
:108B8000108805B0F0BD0000F42F0100F1B586B0EB
:108B9000EFF31080049072B66846058B9648690121
:108BA0004418A088002800D1ABE1401EA080802698
:108BB000E0783042A08815D0002800D194E121004F
:108BC0000831D2484068801C228893009A1892008D
:108BD000805A00F075FF002800D092E1E07846400E
:108BE000E6708EE1002800D08BE1E078012800D10A
:108BF000DFE0022800D1E5E003280CD0102800D1E6
:108C000072E1202800D16FE1302800D16CE14028CA
:108C100000D169E171E1BE484019477A0720C01BC5
:108C200069460870B9484068019000200978628A56
:108C3000914235D31021E170A082628AB448E900E4
:108C4000411810003B00CB1818733800401CC0B20C
:108C500008180C30029002A8828001980E302288F9
:108C600093009A189200805C012814D10820A081FA
:108C700068460078628A801AC0B220830822101ADF
:108C80000200D2B2082A4CD2AA220300DBB2CB18CF
:108C90001A73401CF4E7608AC019401CA08140E0B0
:108CA0002021E170618AE1822082608A6946097828
:108CB00000F002FEA08201980E3021888A0051182F
:108CC0008900405C012809D1A08A69460978484397
:108CD000618A401A801DC01BC0B220830820A08179
:108CE000207FF0210140012008432077628A8848D4
:108CF000E900411813001B0A102018433B00CB1851
:108D000018733800401CC0B2081802733800801C69
:108D1000C0B208180C3002900620C01BC0B202A9D5
:108D200088800198083021888A0051188900405AAB
:108D3000052100F0C4FD401EA0802088744F230050
:108D4000163339001431020092008A1802A900F08B
:108D500049FD012800D1D0E0032800D1CDE0022850
:108D600004D1E07808210143E170CAE0208839008D
:108D700014318200895C002900D0C2E0810008180B
:108D8000800001991031095C012901D0022905D127
:108D900001990918497CEA00BA18117321000831B9
:108DA000019A1018408800F08BFE002800D097E050
:108DB000A7E00321208800F021FD6846008BFFF723
:108DC000FFF99EE0A08A401EA082207F504A5119E0
:108DD000497AEB00D5180F221700074020233B43A8
:108DE0000F00EF193B73F0230340170007400F2FCC
:108DF00004D1237706E000BFE4060020401C0240B7
:108E00001A432277E08A628A238AD21A904208D0D3
:108E10000121208800F0F2FC6846008BFFF7D0F9B2
:108E20006FE00800401C0200D2B2AA180C32029275
:108E3000364A576802AAA38A002B21D1E18A918081
:108E40004022E2703B000E339C46228893009A1821
:108E5000920063469A5C012A0ED10820A081218BE2
:108E6000401A0100C9B2082912D2AA210200D2B2C6
:108E7000AA181173401CF4E7C0B20818A08107E0DB
:108E80000720401AC0B290800820A0813020E070F6
:108E90003800083021888A0051188900405A05217D
:108EA00000F00DFDA08023001633002202A92088C7
:108EB00000F098FC208881000818800039001031EB
:108EC000095C012901D0022902D13918497C297392
:108ED000210008313818408800F0F2FD002810D039
:108EE000E0780643E6700CE00221208800F086FC62
:108EF0006846008BFFF764F903E06846008BFFF7D4
:108F00005FF9049880F3108807B0F0BDF42F0100DA
:108F100030060020FFB581B00500002630006B4907
:108F20006A4612898F18397A039A0B00D25C1407AB
:108F3000240F6A461289520100926A46127C9442BA
:108F400001DB01201EE00722511AC9B2A1420BDB4E
:108F500072490B689C462A0053009A18D200634657
:108F60009A18D288944201DA01200BE089686A4697
:108F70001289895C002905D17849009A895C002909
:108F800000D00120DA49009A8C18A17F012806D16F
:108F9000012900D098E0A677A078387294E00129E2
:108FA0000CD10721280000F05BFC5C480068290018
:108FB0004A005118C900405AFFF702F92580387A53
:108FC00003990200891800910F21009A12780B0072
:108FD000134063822682039A401CC0B21018A0601E
:108FE000009800780140A18122001632618A280091
:108FF00000F00CFC002841D122001632210008317B
:10900000280000F018FC45490E6800280AD100210C
:10901000280000F025FC68004019C000305AFFF716
:10902000CFF851E002281DD10720E07068004019F8
:10903000C00030184089052100F041FCA080234881
:1090400069460989C90045186846027C03992800C9
:10905000203000F0B1FB387A401CC0B22818203014
:10906000A06031E00A21208800F0FAFB208841004E
:109070000818C000305AFFF7A3F825E002281FD1D6
:109080000C20E0702548006869004919C9004018A3
:109090004089052100F013FCA0800C48694609892D
:1090A000C90045186846027C03992800203000F06A
:1090B00083FB387A401CC0B228182030A06003E03F
:1090C00068460089FFF77CF805B0F0BD3006002047
:1090D000FFB583B0002528009E4F6946098A7E1897
:1090E00039466A46128A8918097A059A0B00D25CB9
:1090F0001302F02212011A40059B491CC9B2595CA7
:109100000A4369468A80098A4901009103496A46EF
:10911000127E082A04D2012027E000BFF42F0100AC
:109120000A686B469B895C00E318DB00D218D27B8F
:10913000012A01D1012018E00722337AD21AD2B2D3
:109140006B469B889A4201D301200EE08A686B46E9
:109150001B8AD25C002A08D1004A01E0E706002001
:10916000009BD25C002A00D00120614A009BD418E9
:10917000A27F012806D1012A00D0B7E0A577A07808
:109180003072B3E00868694689894B005918C900F4
:1091900040180090012A08D107216846808900F014
:1091A0005FFB00980088FFF70BF8684680892080F5
:1091B0006846808860820721327A891AC9B200F035
:1091C0007BFBA082207F0007000F10210143217745
:1091D000280020820598317A891CC9B24018A06005
:1091E0000620317A401AC0B2A0810098407CA07657
:1091F0000098807CE07622001632618A6846808979
:1092000000F004FB002851D1E08A618A884203D330
:109210000098407C607606E00721327A891AC9B24C
:1092200000F04AFB6076607EA0760098807CE07655
:1092300022001632210008316846808900F0FBFACE
:1092400000280CD10220E070207FF021014021771E
:109250000620317A401AC0B22082A58046E002285A
:109260001AD10820E07000984089052100F027FB02
:10927000A08025766846008AC0003D186846027EB8
:1092800005992800203000F097FA307A801CC0B28F
:1092900028182030A06029E00320E070207FF02112
:1092A0000140022008432077A5801FE002281AD140
:1092B0000D20E07000984089052100F000FBA0809F
:1092C00025766846008AC0003D186846027E0599EA
:1092D0002800203000F070FA307A801CC0B22818C4
:1092E0002030A06002E00420E070A58007B0F0BD4F
:1092F000C4060020FAB585B0050000206946898AB9
:1093000049010191B149019BCC18E178012901D0B3
:10931000012017E0AE490B682E007700BE19F60059
:109320009B19DB7B012B01D101200BE089686B4687
:109330009B8AC95C002905D1A649019BC95C00290B
:1093400000D00120012800D13EE102926846868AC1
:10935000004F01E030060020B8190190017A029810
:109360000A00805C0007000F227F120990420CD097
:109370000521280000F074FA954800686900491931
:10938000C900405AFEF71CFF1EE1029A0800401C6B
:10939000C0B21018A060608A228A801A80B203903E
:1093A0000720401A0100C9B2039A914241DB1046DE
:1093B0006946097E884242DAA081220016322100E5
:1093C0000831280000F037FA618A218200280CD188
:1093D0000021280000F044FA7D480068690049191E
:1093E000C900405AFEF7ECFEEEE0022800D0DFE0B4
:1093F0000398081A20820920E07075480068690007
:109400004919C90040184089052100F058FAA08088
:10941000F0003D186846027E02992800203000F0D6
:10942000CBF90198007A401CC0B228182030A06007
:10943000CAE001006A46127EC9B291420CD31121E2
:10944000280000F00DFA6248006869004919C90057
:10945000405AFEF7B5FEB7E0C0B2A0812200163236
:1094600021000831280000F0E6F90490694607223F
:1094700038466B469B8AC018007A101A0870208AFA
:109480000978401820820120E070514800682900C6
:109490004A005118C900401803908089052100F046
:1094A0000EFAA080207F010009090F2902DA10308E
:1094B000207702E00007000F2077607E002852D05E
:1094C000401E607600064ED1049800281ED1E08A26
:1094D000618A228A891A89B2884203D30398407C20
:1094E000607608E00721019A127A891AC9B200F061
:1094F000E3F9401C6076607EA0760220E070207F59
:10950000F021014021770120A0805DE002281FD1D9
:10951000208A69460978401A20820A20E070039860
:109520004089052100F0CBF9A08000202076F000D2
:109530003D186846027E02992800203000F03CF970
:109540000198007A401CC0B228182030A0603BE08F
:109550000320E070207FF0210140022008432077A3
:109560000120A08030E0049800282DD002281FD1CF
:10957000208A69460978401A20820B20E0700398FF
:10958000807C052100F09BF9A080F0003E18684621
:10959000027E02993000203000F00EF90198007A26
:1095A000401CC0B230182030A060A08800280BD129
:1095B0000A21280000F054F905480068690049199B
:1095C000C900405AFEF7FCFD07B0F0BDC4060020FC
:1095D000F42F0100E7060020F8B50C001E0000255E
:1095E00023007049C9180F7AFF1CFFB2BE4201D296
:1095F000012520E05E0100966B4E009FF619F6787B
:10960000012E01D0012516E0684E3768BC464700A0
:109610003818C00067463818C07B012801D10125E1
:1096200009E0B068C05C002805D16148009E805DFB
:10963000002800D00125002D4FD1497A0800105C88
:109640000007000F03D0022834D021D33CE0564855
:109650005B01C4180220E0700800401CC0B2105C1E
:10966000A076891CC9B2515C0800090608D5F138FA
:10967000092802D20120E07607E01A20E07604E013
:10968000052100F01CF9401CE076E07EA080F1BDD1
:109690004548590144180120E07044484068218839
:1096A0008A005118890040184089052100F007F907
:1096B000A080F1BD0A213C485A01805A00F09EF872
:1096C0002000FEF77DFDF1BD062137485A01805A82
:1096D00000F094F82000FEF773FDF1BDF8B584B0FA
:1096E000344A03005B01D41825886A005219D2005D
:1096F00001922E4E3268131D019FDB5B6F463B804B
:10970000019BD3181F7C274B012F01D0022F06D1BC
:109710007668AF007D19AD0075196D7C1D7618183F
:10972000457A30200843190018312E008855A17E53
:109730001E0018362800401CC0B23154E17E1E00C5
:1097400018362800801CC0B231541800183002901E
:10975000ED1C208841000818C0001018807B0128EB
:109760000FD106E0AA20190018312A00D2B288547D
:109770006D1C2800C0B20828F4D3082002A98880F4
:1097800002E0EDB202A8858002A96846008800F0D8
:1097900097F9002803D0E07880210143E17005B0FB
:1097A000F0BD000030060020E4060020F42F010088
:1097B000C7060020C406002010B4002303E0CC5CE0
:1097C000C4545B1C9BB21400A342F8DB10BC70476E
:1097D00010B500242046FEF789FD002800D00124A2
:1097E000200010BD10B50C000121002804D121007B
:1097F000002000F065FB0100080010BD002800D02B
:10980000704780B5002000F091FB01BD38B5030022
:1098100001201D4C24685D00EB18DB00E318DB7BA6
:10982000002B03D1002000F097FA32BD012B01D1AB
:1098300000F092FA32BD38B503000120124C2468C2
:109840005D00EB18DB00E318DB7B002B03D100206D
:1098500000F0C5FA32BD012B01D100F0C0FA32BDD3
:1098600080B5094A126843001818C0001018C07B60
:10987000002803D1002000F0E4FA01BD012802D144
:10988000012000F0DEFA01BDF42F0100F4460028AB
:1098900004D4494200F013F8404260474042002996
:1098A00005D45FD000F00BF840424942604749427E
:1098B00000F005F84942604703460B43E6D4002216
:1098C000030A8B420BD203098B4219D243088B4205
:1098D0002ED2411A00D20146524110467047FF2253
:1098E00009023FD012068B4205D3121209028B42A5
:1098F00001D31212090203098B4219D300E0090AAD
:10990000C3098B4201D3CB01C01A524183098B4258
:1099100001D38B01C01A524143098B4201D34B0141
:10992000C01A524103098B4201D30B01C01A5241A4
:10993000C3088B4201D3CB00C01A524183088B422B
:1099400001D38B00C01A524143088B4201D34B0014
:10995000C01A5241884200D3401A5241CFD2014628
:109960001046704708B500F04BFB08BD002A01E027
:10997000521E8154FCD1704710B40023002A03E02A
:10998000CC5CC4545B1C521EFAD110BC704770B53D
:10999000002630008D4C0125002804E00720A0702F
:1099A000300020702800F9D089480088A0808948BC
:1099B0000288E2803146A848FFF7D8FFE088C2005D
:1099C0003146A648FFF7D2FFE08841000A1892000E
:1099D0003146A348FFF7CAFF300020810320002E44
:1099E00001E020702E00FCD0657070BD10B5002421
:1099F000012914D033D3032927D030D273480078FB
:109A0000012804D10321204600F076FC0400200048
:109A100026D10021084600F06FFC040020E06B48CE
:109A20000078032804D00121204600F065FC0400E2
:109A3000200004D10221002000F05EFC0400200080
:109A40000ED1002000F061F90AE00121204600F06B
:109A500053FC040004D1002000F057F900E0012479
:109A6000200010BD10B50024080001D0012807D146
:109A70005648827811408170204600F046F91DE07A
:109A8000062805D15148817806220A40827015E0E7
:109A9000072803D0092801D00E2804D14B4882782A
:109AA000114381700AE0042907D148488178FD22DA
:109AB0000A4004211143817000E00124200010BD00
:109AC000F0B587B007000E000822002104A800F0BE
:109AD00027FD002404A803903C4D6878002800D19D
:109AE00001242878022806D0032803D101219348B5
:109AF00000F020FD0124200065D1A87869460F8080
:109B000081070BD4400705D401218C4800F012FDD9
:109B1000012458E0384600F05FF854E0300001AE10
:109B20003946318069460F88390106918449069A81
:109B30008958029181880A00082A02DD0821B17043
:109B400000E0B170002105E00268525C039B5A54AA
:109B5000491CC9B2B2789142F6DB01A97948069A4C
:109B60008018407A00F026FC002800D0012402284A
:109B700029D1EFF31080069072B63748C0190178EA
:109B8000002904D1012101702889401C2881334813
:109B9000F9004418B27803992000FFF7EDFE780031
:109BA000C01980002E49029A0B1D1A50B2788B1CE6
:109BB0001A540A00083214506A4612880A5206984B
:109BC00080F310880024200007B0F0BDB807002003
:109BD00036A500004EB50000FEB5574EB1784907D6
:109BE00039D5584D000128180090C068002804D0CD
:109BF000009800880099C9688847EFF310800190A9
:109C000072B63089002823D000273800124C01E0BA
:109C1000401CC0B2F18888421ADA290009310201D9
:109C20008A181178009B5B7A9942F1D1215C012955
:109C3000EED105000A4869004919890041181078D9
:109C400000F0B8FB002803D167553089401E3081F1
:109C5000019880F31088F7BD180800201C07002029
:109C60007C060020FEB5344CA478E40738D5364C89
:109C70000500655D06E03768B94202D376688E421A
:109C800011D2A58A314C6E007619F600A419FF2D69
:109C900009D02669002EEED166688E42F1D1667A2F
:109CA0000700BE42EDD1FF2D1AD02088A57A2E00E4
:109CB000B24204D20121264800F03CFCF7BD6A46BE
:109CC000958000932269002A05D09368002B07D065
:109CD0006A469847F7BDE268002A01D06946904776
:109CE000F7BD7047012904D00ED3032909D004D34E
:109CF00070470121104A1154704702210E4A115435
:109D0000704703210C4A1154704710B40020010021
:109D10000AE0104A545C012C04D11C89641E1C8189
:109D200003005354491CC9B2034BDA889142F0DB5B
:109D300010BC704700000000B8070020026000005F
:109D4000C42D0100C02D010008310100CC29010003
:109D50000160000018080020F5B481B00022100056
:109D6000714B5C8B6D46AD88AC4201D1012034E073
:109D70008D4C25786E0701D502202EE06E4631808D
:109D80008A49B688B60089596E463688B14201D2F2
:109D9000032022E06E46B688002E02D0012E09D0A4
:109DA00010E00326824F3E70FE262E402670814C26
:109DB0001C6007E003267E4F3E70FE262E40267074
:109DC0007D4C1C60029C21806946098859607B4952
:109DD0000978012901D07A490A70FEBC7047F8B5AC
:109DE000040000200500704B1B78042B06D12000D6
:109DF000012801D0002C22D1022520E0230002D02E
:109E0000012B03D005E0484B187402E00120464BBB
:109E1000187400920F00444EBA883968306800F018
:109E2000E5F83068B988C9B2401830605F48A100D1
:109E300040180168BA88891A0160009801802800DA
:109E4000F2BD002900D0704738B50500364C658357
:109E500001205C4908705948007801F059FB5A49C3
:109E6000420010188000081840680521FFF727FD00
:109E700056490860002D02D0012D0DD031BDDC20E7
:109E800040004A4908604B482060A060464801787D
:109E900002220A43027031BD082044494860464905
:109EA00021604448A060002202E08B5C8354521C75
:109EB000082AFAD33C48017802220A43027031BDD5
:109EC00070B50D001E0038480078000705D5032244
:109ED0003F49286800F08AF815E03E4800780028DD
:109EE00007D0782805D003223B49286800F07EF887
:109EF00009E00D4CAA88A168286800F077F8A068EE
:109F0000A9884018A060A88834490A88824202D3F0
:109F1000101A088001E000200880002E01D0088877
:109F20003080002070BD00005404002080B500295E
:109F300028D11D4801780A0712D5F7220A4002707D
:109F40001E48007801F0E4FA1F4942001018800012
:109F5000081880680521FFF7B2FC1C49086013E06F
:109F6000FB220A40027000200100114A11701C49B6
:109F7000FF224A830200174B1A700E4A0A608A6059
:109F8000C86001E001F09EFA0C480078012809D071
:109F900001200B490870134800680521FFF78FFC6A
:109FA0001149086001BD0000730400207401002005
:109FB0004E010020D40100205C010020710400202B
:109FC000500100204F010020702E0100800400206D
:109FD00020080020720400201C0800207C040020BF
:109FE00054040020983001008404002010B40023A1
:109FF00002E0CC5CC4545B1C9342FAD310BC7047A3
:10A000007047F1B401684218416848081318009875
:10A010008068C9071ED5494640181BE01778521CB6
:10A020000770401C761EF9D1002C13D01678521CF4
:10A0300089080D40032D01D11578521C2902711891
:10A040004D424119A41C05D00D78491C0570401CD7
:10A05000641EF9D19A420FD01178521C03250326B1
:10A060000E4002D11678F61C521C0C090F2CD9D1C7
:10A0700014780F34521CD5E700980C30F2BC7047AE
:10A08000C069410A0800C007C00F7047C069C10914
:10A090000800C007C00F7047C06941080800C0072A
:10A0A000C00F7047006A410A0800C007C00F704720
:10A0B000006AC1090800C007C00F7047006A410864
:10A0C0000800C007C00F70478021890041627047B7
:10A0D000802141627047022141627047AD490A68A0
:10A0E000104308607047AC490A6810430860704725
:10A0F000AA490A6830239A43104308607047002A2F
:10A1000001E0521E8154FCD17047704738B5A44815
:10A110000478002002251DE0A2498968026A2B46C6
:10A1200099431140016214E09F49A000081840695A
:10A130004A7A012AF0D0C26992070AD5994A9268F0
:10A14000036AAA431A400262012048728889FFF715
:10A1500043FD01200028E7D031BD944800789049A4
:10A1600009780200FF2A00D17047F0B585B06A4631
:10A1700010700491802433E005B0F0BD8F048C4E44
:10A180003E40490B8903890B711802AE17003770E6
:10A1900037781F70170A777077785F7017003F0C59
:10A1A000B770B7789F70120EF270DA702A003271B1
:10A1B00032791A712A0A727172795A712A00120C54
:10A1C000B271B2799A712A0EF271DA7102AB02079A
:10A1D000120F68460078FFF745FD01984069446218
:10A1E000714B04988000181801904569E869204077
:10A1F000C2D0296D686DAA6DED6DCE04BED449053F
:10A20000490DC2E7704770B5674C01221146200026
:10A210000930FFF774FF0222FF2120000C30FFF706
:10A220006EFF0122002120000830FFF768FF0422A2
:10A23000002120001030FFF762FF80200003FFF7AD
:10A240004DFF8020C001FFF74EFF1020FFF750FFA9
:10A250000021802630E00420A07251480078800060
:10A26000201801214269116043699A690A40FCD0B3
:10A270009A690A4020D04B4A15689D605368456929
:10A28000EB60D36845692B6653694569AB66D36952
:10A2900045692B67536A4569AB67D36A4569AB511A
:10A2A000136945696B6693694569EB66136A45698D
:10A2B0006B67926A4069C2670029CCD070BD10B547
:10A2C000374804782000FFF720FF3748A1004018E6
:10A2D000002142691160012300E011604269946924
:10A2E0001C40FAD091690B4005D089490B689360F6
:10A2F00049684069C16010BDF8B5002427002848AE
:10A300000578002905D0022941D028D303293ED061
:10A310003CE0254E0122114630000930FFF7EFFEE8
:10A320000222FF2130000C30FFF7E9FEA8003018B0
:10A3300041694C60022142691160416908228B69C0
:10A340001340FCD08869024007D016488068086234
:10A3500002212046FFF7C6FC19E0B47217E028007E
:10A36000FFF750FF1048A90041184A6914604A6974
:10A37000012394691C40FCD09169194004D0032149
:10A380003846FFF7AFFC02E0837200E00127380097
:10A39000F2BD00003C2400404C2400404424004016
:10A3A00006310100F0000020D80000200731010034
:10A3B0000000FC1FF3B40200002108000E00554B02
:10A3C0005400A2189B181A78314CA55CEFF3108446
:10A3D000009472B65B782D4CAD0065196F69BF694A
:10A3E0007F0505D4A718FF187F7A012F00D1012619
:10A3F000012E45D1019EA718FF18797251006118EE
:10A400005B00C91833888B81696930317468E30057
:10A4100003D463055B0D0B6008E06303A40C6405C3
:10A42000640D1C43C0235B0123430B60B1786B694F
:10A430005963B168CB791B068C7924041C434B7992
:10A440001E0226430B793343CC7826068C782404ED
:10A4500034434E7836022643097831436C69A16350
:10A460006969CB6302216B6959622B4B5400A218B6
:10A4700012019A586B691C6A11402143196200E06D
:10A480000220009981F31088F6BC7047D8000020A4
:10A490000631010010B5214C2000FFF709FE01280C
:10A4A0000CD12000FFF7F2FD012807D101F064F97B
:10A4B0000020FFF752FE2000FFF70AFE2000FFF702
:10A4C000FDFD01280CD12000FFF7E6FD012807D192
:10A4D00001F052F90020FFF719FE2000FFF7FBFD05
:10A4E0002000FFF7DFFD012810D12000FFF7C8FD95
:10A4F00001280BD101F03CF901210020FFF7FCFEFF
:10A500000020FFF7EEFB2000FFF7DEFD10BD00008E
:10A51000F0000020DC2F0100F80000200094014032
:10A5200010B50400080011000200200001F08CF9B1
:10A53000200010BD70470800F8B500F0C3FF0124EB
:10A540002000AD494877AD49487308700020AA49FA
:10A5500008632100A94A917101001173DC214900AF
:10A5600091620822A54BDA620246A54B02E01A541A
:10A57000401C80B28842FAD31146080003E09F4B8A
:10A580001B181A74401C0828F9D39E489E49096874
:10A59000102201F087F9002103E097480A00426287
:10A5A0002000FAD00D46280094494872924C6085EC
:10A5B000E567052718E0A8002618A648A90049194C
:10A5C00089004018009040683900FFF778F97063FF
:10A5D0000098407B8949491908760098006839003D
:10A5E000FFF76DF930656D1C072DE4D301200100E4
:10A5F0002177824902004A71002213004B70150036
:10A60000202702E0CE18F5555B1C072BFAD3042255
:10A610008A72FF22CA712B461A0002E08E18B573A7
:10A62000521C022AFAD319460A002285A277734ADD
:10A6300013716167DB43A3670B003D466355D1721D
:10A640001072F1BD0078401E012815D9103801287C
:10A6500014D9E13801281DD9801E012818D9801E7F
:10A66000012813D9801E01280ED9801E012809D97E
:10A67000801E012804D90FE001200EE002200CE02A
:10A6800003200AE0042008E0052006E0062004E09C
:10A69000072002E0082000E0002001009C4A5170E1
:10A6A00001218140FE20084070470120524948772F
:10A6B000974948730870704780B500F076FE00F047
:10A6C00069FE00F005F800F08FFC00F075FD01BD9B
:10A6D000F8B54A4D69796818474CC27D002A22D1E5
:10A6E0008A00A618F26C002A02D0521EF2641AE008
:10A6F000584A8B0059188900511814394A7BC27581
:10A7000008680521FFF7DBF8F0640020010006E08F
:10A7100002002B0020330E00F6B29A55491C0A00A5
:10A72000D2B2072AF4D3A87901280DD1606B002892
:10A7300002D0401E606307E00020A87145484068D1
:10A740000521FFF7BCF86063287901281FD1206B31
:10A7500000281CD0401E206319D101F043FCFFF7F4
:10A76000A4FF00263000287101F05BFD00F02AFEF6
:10A77000300006E031002A0020320300DBB2D15461
:10A78000401C0100C9B20729F4D301202077E878E2
:10A7900001282FD1A06F002821D0E06A401EE0627E
:10A7A000002000F033F8607F00F0B2FEE46A410060
:10A7B0000D18AD00AA4E0527301D40593900FFF78E
:10A7C0007EF8A04216D2701980683900FFF777F83A
:10A7D000400884420ED2012000F018F8F1BD10218B
:10A7E000200000F045FB200000F05AFBE07F102124
:10A7F0000143E177F1BD0000540400204C0100202A
:10A80000D401002090070020800100201CB5020028
:10A8100011A003C86B4603C3924CE06A002801D024
:10A82000012A15D1E07F08210143E1778E487F217D
:10A830000170BC4909784170782181700090032033
:10A8400069468880608BFEF7C3FFA06F401EA0673B
:10A8500013BD00004C2B01000000000000000000B0
:10A8600080B500F079FD01BD80B500F075FD01BD3A
:10A8700080B57C484168042903D0132100F0F8FA20
:10A8800001BDA949016701F0ABFD01BD10B5A74CA1
:10A8900020684078401E012806D9C01E0CD0801EBA
:10A8A0000AD0001F10D016E06068032813D01321CF
:10A8B000200000F0DDFA0EE0606806280BD01321BE
:10A8C000200000F0D5FA06E06068022803D01321CA
:10A8D000200000F0CDFAA07F002801D100F0A4FDF7
:10A8E00010BD000080B591484168491E4160CA070B
:10A8F00003D5132100F0BCFA01BD4908012903D991
:10A90000312100F0B5FA01BD00F096FC01BD000058
:10A910004C010020F8B50027524C2668701CFFF748
:10A9200091FE834DA979002904D02221200000F056
:10A930009FFAF1BD69790A00AB18DB7D002B10D1BD
:10A940007C4EB05C012807D13621200000F090FA3F
:10A95000384669797054F1BD3721200000F088FA3B
:10A96000F1BD7378DB073BD56168022952D172498A
:10A97000227F82421FD17078A268507006E00020CA
:10A98000A2683B00DBB2D21890707F1C687802008E
:10A9900093009B189B00CB583E00F6B29E42EED32C
:10A9A0006871012029001F3188549B1CE36020003E
:10A9B00000F076FAF1BD6878687101222B001F3330
:10A9C0001A548200101880000858801CE0605B4810
:10A9D0002021615C09014158216720008847F1BDB1
:10A9E00028001F30805CC00702D56878814206D0FD
:10A9F0002421200000F03CFA00F0BCFCF1BD6168AD
:10AA00004F4A83001818800010180C380068801C0A
:10AA1000814206D01321200000F02AFA00F0AAFC9F
:10AA2000F1BD46482021615C0901415821672000A1
:10AA30008847F1BD80B53D484168032903D0132103
:10AA400000F016FA01BD016889788A0701D004294F
:10AA500003D3312100F00CFA01BD00F0E5FC01BD8B
:10AA6000702E01005404002020080020FEB50020B4
:10AA700001900446012201462C4805686B781B02B0
:10AA8000AD782B4309E02500EDB22D017559AB429D
:10AA900002D1002221003C46641C254DAD7A6E4651
:10AAA0003570284E25006F463F78EDB2BD42EAD39F
:10AAB000C9B2090171184B7B012A02D00A79012A17
:10AAC00003D0312100F0D4F9F7BD4268CC88E41CF2
:10AAD000A24203D0132100F0CBF9F7BD427F13420D
:10AAE0000AD0027C012A02D18B7B5B1E04DD002A86
:10AAF00006D18A7BD20703D4222100F0B9F9F7BD31
:10AB00000A7B002A06D0037F134003D1332100F0D3
:10AB1000AFF9F7BD8268521C826089680167884777
:10AB2000F7BD0000D4010020E1C300005404002060
:10AB30004C010020F3070020482B01004C270100A6
:10AB40004C2B0100442D0100FEB500200221019193
:10AB50000227FF22130001216C4621709F4D2C68B3
:10AB6000A1780902E47821436C466370029110E0F9
:10AB70000100C9B2B14B2C244C431B19029C1E8806
:10AB8000B44205D10F005A7D187D6946487001987E
:10AB9000401C0100C9B20229EAD368464078022F5E
:10ABA00004D13121280000F063F912E0697F0A42E4
:10ABB00004D12221280000F05BF90AE0297F084235
:10ABC00004D13321280000F053F902E00020694647
:10ABD000087068460078002800D02DE1012428681C
:10ABE0004078012856D195482C2179434618B06801
:10ABF000002800D11CE1307901280BD16868716A06
:10AC0000091D884204D01321280000F031F902E028
:10AC1000002400E00024002C00D00DE12020285C5E
:10AC2000FF2800D104E1297C012904D1994A927BB3
:10AC3000521E00D1CFE0002904D1964A927BD20760
:10AC400000D4D2E0012906D1934A03001B01D25C53
:10AC5000521E00D1BFE0002905D18F4A0001105CCF
:10AC6000C00700D4C1E0012903D1B07D401E00D14E
:10AC7000B1E0002903D1B07DC00700D4B5E087481A
:10AC80003900C1710021C0198173B168296728009A
:10AC90008847F7BD022860D168482C2179434618BF
:10ACA000F068002800D1C3E0307901280BD1686832
:10ACB000F169091D884204D01321280000F0D8F85A
:10ACC00002E0002400E00024002C00D0B4E02020AA
:10ACD000285CFF2800D1ABE0297C012903D16D4A13
:10ACE000927B521E77D0002903D16A4A927BD20709
:10ACF0007BD5012905D1684A03001B01D25C521E95
:10AD000069D0002904D1644A0001105CC0076CD5E9
:10AD1000012902D1B07D401E5DD0002902D1B07D55
:10AD2000C00762D55D4CE019807B0521014066D0EB
:10AD30003800E071F168296728008847E019807BB6
:10AD40000199084278D0FE210140E019817306295B
:10AD500072D10020E1198873F7BD032868D1374804
:10AD60002C21794346183069002861D030790128B8
:10AD700009D16868042804D01321280000F078F86D
:10AD800002E0002400E00024002C55D12020285CA3
:10AD9000FF284DD0297C012903D13E4A927B521EC7
:10ADA00019D0002903D13B4A927BD2071DD5012936
:10ADB00005D1394A03001B01D25C521E0BD0002979
:10ADC00004D1354A0001105CC0070ED5012907D116
:10ADD000B07D401E04D100F0E5F8F7BD540400201A
:10ADE000002907D1B07DC00704D42221280000F03B
:10ADF0003FF8F7BD294CE019807B800704D124215E
:10AE0000280000F035F8F7BD3800E0713169296796
:10AE100028008847E019807B41070DD5FE210140BD
:10AE2000E0198173062907D10020E1198873F7BD65
:10AE30001221280000F01CF8F7BD0000582C01007A
:10AE400080B566484168022903D0132100F010F84C
:10AE500001BD417C002904D10221C16000F020F82D
:10AE600001BD00F09FF801BD80B500F075FA01BD8D
:10AE70005A4A937F002B00D1917759497F230B7059
:10AE8000584B1B784B70927F8A7081600321C160A0
:10AE90007047000090070020582701004C01002057
:10AEA000F1B582B03DA003C86A4603C20024270062
:10AEB0004A4DE87FC10665D4687C012802D1A87F8D
:10AEC000002802D0E86800280ED1687F012808D049
:10AED0000120B7490871B74800680521FEF7EFFC6B
:10AEE000286300F0EFFA49E0B14EFF21BA31884201
:10AEF00004D331212800FFF7BBFF15E0287C01288F
:10AF000012D1A87F31280FD1307B00280CD1687F67
:10AF1000012807D001203071A64800680521FEF7FE
:10AF2000CEFC286300F0CEFAA97F0298002901D058
:10AF3000782905D12B4981600268127840320A7065
:10AF400081680091C1686A469180C1682985408BFB
:10AF5000FF2803D06946FEF73BFC0700002F08D10D
:10AF60002000F072F070EC626874EC662C676C671D
:10AF700003E00120F072EC662C67AC770020C04340
:10AF8000A867F7BD21008A4A9170FF216983EF21EC
:10AF90000140E977EC662C676C67F7BD00000000A4
:10AFA0000000000080B50D480021C160FFF778FF68
:10AFB00001BD0100FF2000224023194200D070474C
:10AFC00010B40C00862C06DA080600D51A00944846
:10AFD0000068A11A405C10BC7047000054040020B7
:10AFE0001C080020D4010020FEB501206946C8706D
:10AFF0008C4CE07F810700D4D9E000252900202275
:10B00000A154FD21014004200843E07726683078F0
:10B01000FFF7CFFF8449096802018A18516801913E
:10B02000117A6B469970517A5970917A1970117B27
:10B03000537B0293937B227C7C4F3F68B84200D3C2
:10B04000A4E0012A04D1581E02DCFFF7ABFFA6E002
:10B05000002A06D1D80704D411212000FFF708FFE9
:10B060009DE06068022804D213212000FFF700FF52
:10B0700095E0684600786B465B78677F384209D177
:10B08000012A02D1FFF78EFF89E07F212000FFF720
:10B09000EFFE84E0002B02D0207F184064D0684689
:10B0A000807801286CD17078C0096074206842787B
:10B0B0005206520E42700E006846C0780299AC4F9C
:10B0C0000CE023685B781201BA18127A934204D11B
:10B0D00028002022A6540E00761C761C3200D2B224
:10B0E0000B005B1C9A42ECDB217C012809D1002972
:10B0F00004D112212000FFF7BBFE50E0FFF752FF02
:10B100004DE038462022A25C12018318D87A9A7A40
:10B110005D7A012D09D0002904D112212000FFF70A
:10B12000A7FE3CE0FFF73EFF39E0012905D11D7B7A
:10B130006D1E02DCFFF736FF31E0002907D1197BD5
:10B14000C90704D412212000FFF792FE27E0617F97
:10B15000084204D17E212000FFF78AFE1FE0002A6A
:10B1600007D0207F104004D133212000FFF780FE5C
:10B1700015E001200E4908730198E06680470EE053
:10B180000B4805730198E066804708E0002A04D167
:10B1900011212000FFF76CFE01E0FFF703FFA07F05
:10B1A000002804D0782802D02000FFF779FEF7BDF0
:10B1B0004C010020983001003EB500BF1CA003C820
:10B1C0006A4603C2A94CE07A012827D1154DE86AE6
:10B1D000002802D1E87F00071CD5A8680090E86825
:10B1E00001006A4691802885688BFF2803D0694654
:10B1F000FEF7EEFA00E00120002808D1002001004F
:10B20000E172E170E862E8662867686737BD01208F
:10B21000E07237BD0020E07200F054F937BD000045
:10B220007C010020540400208001002094300100A3
:10B230000000000000000000FEB500231D46A04CE9
:10B240002068401C01901846A8494872608503E0B8
:10B250000198801C01909B1C6068834259D2019820
:10B26000007801020198407801430020029129E012
:10B27000618D0A009200029EA718BE842600263621
:10B28000B052491C618514201AE0267C012E02D19F
:10B29000977B7F1E14D0002E02D1927BD20709D556
:10B2A000012E02D18A7B521E0AD0002EE0D1897B6A
:10B2B000C907DDD422212000FFF7DAFD14206368DE
:10B2C000401C80B21428C3D2894902018918029A0D
:10B2D0000E68B242F4D16D1C4A7B667F3242E9D0DF
:10B2E000227F0E7B16420DD0521E9241D20F6E4627
:10B2F0003270804A577A3E00F607F60F6F463F7865
:10B300003E42C2D033212000FFF7B2FD1420636813
:10B31000D6E7A07F00281ED12D0604D131212000C0
:10B32000FFF7A6FDF7BD608D002802D1FFF73AFEBA
:10B33000F7BDA068401CA0600120E060E0676E4897
:10B3400021002631694A527A9200895A09014158EE
:10B35000216720008847F7BD80B559484168022918
:10B3600003D01321FFF784FD01BD00F05DF801BD9E
:10B370004C2701003D4841794018C27D002A08D081
:10B38000521EC275120604D101205C4A5118491E92
:10B39000087070474A48C17F490700D4704780B59C
:10B3A000016F002900D0884701BD10B5444CE07FF3
:10B3B000400706D4616F002903D000208847002091
:10B3C000606710BDF0B5002528002900274C02E079
:10B3D00022189173401C0228FAD3FF20E071280044
:10B3E000202302E02218D154401C0728FAD3012060
:10B3F00033490877A079002815D112E04048A90008
:10B400004919890046182E48A9004018076D306870
:10B410000521FEF754FA874202D1707B6119087644
:10B420006D1C072DEAD3F0BD38B5254C354D2020D5
:10B43000205C000129582167002901D0200088479D
:10B44000A07F002801D078280ED12F4801785029FC
:10B4500002D14078254908702020205C000128187E
:10B460004068002800D0606731BD00004C0100201A
:10B4700070B500221300002908D1FFF77BFF70BDD3
:10B480001C00E4B2091920240A555B1C17491C0052
:10B49000E4B2072CF4D304004D791948AA005219DC
:10B4A000920080181438427B4919CA75044E00680E
:10B4B0000521FEF704FAA9007118C864347770BD3D
:10B4C000540400200020094A0100D1700F49C862CD
:10B4D00003004B748B7793700122CA77FF224A8353
:10B4E000C8660867C860C043886770474C01002081
:10B4F0008C2801009007002094280100F407002008
:10B500004C2B01004C270100D401002054040020E2
:10B510000100002002290CD004290CD008290CD0ED
:10B5200010290CD020290CD040290CD080290CD017
:10B5300070470120704702207047032070470420A5
:10B5400070470520704706207047072070470300AA
:10B5500080B500218D480A0002764276827582828B
:10B560004284C2830C2100F07FF901BD80B501F057
:10B5700053FE01280DD18548817A002903D001208E
:10B5800001F0BBFE01BDC079002802D0022001F00D
:10B59000B4FE01BD80B501F03FFE7C494A7D002A22
:10B5A00012D0012810D1087D00280DD1C88B401C75
:10B5B000C88300220A8480B233280DDB3220C8837E
:10B5C000012001F09DFE01BD0020C883088C0A28DF
:10B5D00002DB022001F094FE01BD10B500F0D8F8A6
:10B5E00000F00EF901F0AEFF082801D0022811D1B9
:10B5F000904C207800281FD103210020FEF7F6F997
:10B60000002002F039FA03F065FC03F03CFA012057
:10B61000207011E0874C207801280DD1FEF7F3FD52
:10B6200002210020FEF7E2F903F042FC03F022FAC7
:10B630000020207002F0F3F9FFF798FFFFF7AAFF50
:10B6400010BD704780B57C49012003F0D1FA01BDDF
:10B6500080B57A49022003F0CBFA01BD80B5784964
:10B66000042003F0C5FA01BD10B5484C2100173184
:10B67000032003F0BDFA00206075208C401C20845C
:10B6800080B20B2801DB0A20208410BD38B50024CD
:10B690002000694608703D4D287603F0A9FA6846F7
:10B6A000007829000C316A7E8854687E401C6876D8
:10B6B000687E05281BDB20006876287B032816D1CE
:10B6C000687B032813D1A87B032810D1E87B0028CE
:10B6D0000DD1287C00280AD1E87E012802D0287FDD
:10B6E000012801D10120A8752000A881AC7331BDCB
:10B6F00000202649C8767047002024490877704703
:10B700002248012141750021C175704700204C4934
:10B71000088070471D48017E491C0176017E0B2977
:10B7200003DB0A2101760021417670471749887DA5
:10B73000002801D000228A7570471448C17E012973
:10B7400002D0017F012902D10121817601E000218F
:10B750008176807E70470D48C07D70470B48C07E63
:10B7600070470A48C07D704735480088C0B27047AE
:10B7700001200649087070470020044902008A72BF
:10B7800048800120887170470000000058060020A2
:10B7900070B52C4C2078002823D00025280020707C
:10B7A00065600126300060706088401C608003F096
:10B7B00091FB03F068F96088A17A002908D1062876
:10B7C00001DA268170BD658064202081A67270BD7B
:10B7D000042802DC6420208170BD284602F096FF18
:10B7E00070BDA07900280AD0A0880100FA2252007A
:10B7F000914202DA401CA08070BD0120E07170BD52
:10B8000080B510480189002901D0491E01810189B4
:10B8100000290ED1417800290BD000214170FEF79C
:10B82000F2FC02210020FEF7E1F803F041FB03F0F7
:10B8300021F901BD300800207306002074060020A5
:10B84000C2070020580600201206130A1A43130CE0
:10B850001A4300BF094205D083070BD00270401C79
:10B86000491EF9D1704700001206130A1A43130C3F
:10B870001A4300BF1300103906D330B4140015006A
:10B8800010393CC0FCD230BC490700D30CC000D5F5
:10B8900004C0890002D30280801C002900D50270F8
:10B8A0007047640070B4103A03D378C9103A78C076
:10B8B000FBD2530701D318C918C001D508C908C065
:10B8C000D20704D30B880380891C801C002A01D571
:10B8D0000B78037070BC704730B40022130004E092
:10B8E00014001D00ADB244555B1C1C000D00A4B239
:10B8F000AC42F5D330BC704730B40023150003E0F0
:10B900001C00A4B201555B1C1C00A4B2AC42F7D3CE
:10B9100030BC704770B50600B148B10089194900C4
:10B9200045185020A8720024200006E00722214676
:10B9300028000E30FFF7E0FF01200028F6D0AC749D
:10B94000EC74EC726C732C73BD488019047304772B
:10B95000047570BD38B50C00A14982001018400074
:10B960000D182078A8720322611C28000B3003F008
:10B9700029FC002006E00422211D28000E3003F0DF
:10B9800021FC01200028F6D0800020180179A9743C
:10B990004079E87431BD0100BB480A00920080186C
:10B9A0008078002812D0002000E0401C0200A44B48
:10B9B0005B78D2B29A4209D2894A0300DBB2D2182C
:10B9C00052780B009A42F0D1C0B27047FF20704706
:10B9D0000100AE4A5278914200D3704738B5804991
:10B9E0008200101840000C18250012352878002815
:10B9F00001D00020287001F030FD297889006118FD
:10BA00008873FFF7AEFE297889006118C873FFF7C5
:10BA1000ABFE29788900611808822878401C2870BC
:10BA2000E07C002801D10120E07431BD6C49820026
:10BA3000121852008918954A1018027BCA72027DAA
:10BA40000A73007F4873704710B50400FFF7A3FF27
:10BA5000FF2814D0B649095D614A83001B185B00BA
:10BA6000D3189A7A8A420AD099720A228100091858
:10BA700049003A3189B218000A3003F037FC10BD92
:10BA8000FEB500276D466E4E29E0E07AF119087385
:10BA9000607B0877207B08751FE05020A07207228A
:10BAA000002120000E30FFF727FFE07AFF280AD19F
:10BAB000607BFF2807D1207BFF2804D100200100F4
:10BAC000E17221736073A07A5028DED1002001005A
:10BAD000F21911731177F11908757F1CFFB2707894
:10BAE00087422ADA0A2238008100091849003A31CF
:10BAF00089B2684603F0DDFB3949BA00D219520019
:10BB00008C180128C9D12878002801D0FF280AD133
:10BB10000A216846FFF7E0FE50202870002001004F
:10BB20006970698004E0FC210140502008432870BE
:10BB300069463800FFF70EFFB7E7F7BD38B5EFF3FA
:10BB4000108472B6514D0321681DFFF7C5FE032115
:10BB5000A81CFFF7C1FE082128002430FFF7BCFE17
:10BB600084F3108831BD0300082B00D37047F0B474
:10BB700002009208580006230340EFF3108472B6C7
:10BB80000325424EB01887782800984087430D401F
:10BB90009D403D43B018857084F31088F0BC704719
:10BBA00070B4010089080323420006241440A34016
:10BBB000DA43EFF3108372B6344C65186D791600D2
:10BBC0002E4065186E71AD782A4061188A70002188
:10BBD00020182422815483F3108870BC7047000021
:10BBE00034050020F8B40200002013009B080093E5
:10BBF000520006231340EFF3108272B6234C009DCF
:10BC00006519AE781E4182F3108803252A00324060
:10BC1000009EA619767937001F412F4097420CD01D
:10BC2000012A01D0022A00D101209D40AE43150017
:10BC30009D403543009BE3185D710A70F2BC70476C
:10BC4000D405002030B40020104902004A7005E0FD
:10BC5000FF238C18A37203002372521C022AF7D30D
:10BC60007E4C0CE0084A8300D2189278002A05D056
:10BC70004A78030015006355521C4A70401C08287E
:10BC8000F0D330BC70470000FC2E0100D40500202A
:10BC900038B50025264C0AE05020605506E0704972
:10BCA0008200101840000818807A60556D1C082D1D
:10BCB0000DD26C48A900401880780028ECD02800EC
:10BCC000FFF769FEFF28EAD150206055EEE731BD4D
:10BCD00038B50500FFF7B6FFC14C6078092800D3DE
:10BCE000FEE72800012804D1FFF7CAFEFFF7D0FFC6
:10BCF00031BD280001D0022D19D1082250210C4855
:10BD0000FFF7FAFD002504E02800C0B2FFF702FEAD
:10BD10006D1C607829000200C9B29142F4D3810001
:10BD20000A18520092B23A21B64803F0DFFA31BD48
:10BD3000FC07002010B40100FF200A7812044B78A1
:10BD40001B02134389781943002200E0521C1300A0
:10BD5000DBB2082B07D2B14B1400E4B2A4001B598C
:10BD60008B42F3D11000C0B210BC704710B5040074
:10BD7000FFF711FE21003B4A8B00D2189278002A6F
:10BD80000AD00100964A5278914201D2FFF7C2FDD3
:10BD90002000FFF759FE10BD5020A14A505410BD9D
:10BDA00038B5040020780004617809020143A078C6
:10BDB00008439C49884206D1FFF7C0FE0220FFF7E6
:10BDC00087FF002032BDC0210904884209D08021AC
:10BDD0000904884205D04908884202D0890888426F
:10BDE0001AD100252800C0B20828EAD2C0208B4909
:10BDF0002A00D2B292008958090C014022781040E2
:10BE0000814207D12800C0B2FFF7CAFE2800C0B2A5
:10BE1000FFF7ACFF6D1CE5E72000FFF78BFF040088
:10BE2000082805D2FFF7BCFE2000FFF79FFFC8E7F8
:10BE30001320C04332BD10B5FFF780FE0120FFF78D
:10BE400047FF674C0A202070082120002430FFF7AC
:10BE500043FDE06A0F210143E16210BD350500207A
:10BE600034050020FC2E0100FEB50700082800D391
:10BE7000B4E0C008019001227807400F130083400E
:10BE8000DBB20293564C01982018007A184200D178
:10BE9000A4E03800624B1D182B78002937D12F21E0
:10BEA000194329700B001B09134202D0EF230B40EA
:10BEB0002B7029780B009B09134202D0BF220A4045
:10BEC0002A7001996118897A029A114200D185E09D
:10BED000D5432940019AA21891725349800008184D
:10BEE000807800287AD03800FFF755FD0600FFF76C
:10BEF0006FFD3000FFF79AFD3800FFF7A5FD0198B0
:10BF00002018007A0540019820180572F7BD0199A4
:10BF100061188E7A02993143019EA619B172FE21F1
:10BF2000194029700B001B09134202D0EF230B406C
:10BF30002B7029780B009B09134202D0BF220A40C4
:10BF40002A70297842220A4002D1FB220A402A7034
:10BF50003549800008188078694608702E780C20D2
:10BF6000304008282BD168460078002827D03800B8
:10BF7000FFF711FD2118097F491C221811770A00CB
:10BF8000D2B2282A01D1022804D1C9B250290BD13A
:10BF9000022809D10021221811772118097D491C96
:10BFA0001175D72131402970824982001218520040
:10BFB00089182218127F4A732018007D087368467A
:10BFC000007800280AD03800FFF73EFD01982018BD
:10BFD000007A02998843019961180872F7BD000040
:10BFE000D405002010B5744CE06A01004907C90F60
:10BFF00001D1FFF7A3FDE06A05210143E16210BD15
:10C00000000000003E0500206B48C16A05229143F4
:10C01000C16270476949085C70470000DC2E01006E
:10C02000FC070020FFFFFF00FC2E0100FEB506000C
:10C030000027684607706248310089004018019067
:10C040005D4C300025186946FFF7CCFD00283BD039
:10C0500068460078012818D101988078002833D0EC
:10C060003000FFF798FC2118097B491C2018017348
:10C0700024202F543000C0082018017A01227307B1
:10C080005B0F9A400A4302721EE06846007802285D
:10C090001AD101988078002816D048483100405CB9
:10C0A0004121014010D03000FFF775FC0198007865
:10C0B000242168543000C0082018017A0122730737
:10C0C0005B0F9A400A43027268460078012813D138
:10C0D0002420285C01990978884202D2401C24223D
:10C0E000A8542420285C88422AD339463000FFF720
:10C0F000BBFE24202F54F7BD6846007802281FD1CC
:10C100002420285C0199497800290AD1002808D008
:10C1100001213000FFF7A8FE01980078242168541F
:10C12000F7BD002804D0401E24216854000607D122
:10C1300001213000FFF798FE01980078242168540F
:10C14000F7BD10B500241F4800788007800F032832
:10C1500009D104E02000C0B2FFF768FF641C200092
:10C16000C0B20828F6D310BD10B5002410E0134863
:10C17000015DFC220A404021114301551048A100F5
:10C1800040188078002802D02000FFF704FC641CCF
:10C19000082CECD3084C0321601DFFF79DFB032105
:10C1A000A01CFFF799FB082120002430FFF794FB27
:10C1B00010BD000034050020D4050020FC0700203D
:10C1C000FC2E010000060020BFF34F8F61487D491F
:10C1D0000860BFF34F8F00BFFDE77B48002101706F
:10C1E0004170704710B504007248407C002815D19A
:10C1F000764841680A0AA3689A70A268D17080687C
:10C200000A21FDF75CFB010AA2681171A16848715F
:10C210000620E0602000FEF743FE10BDFEF7C2FEE0
:10C2200010BD00210A00002800D0704738B5012455
:10C230006148047061480470614B04E00800150017
:10C24000EDB25855521C1000C0B20728F6D3604812
:10C25000047008005F4A1070FF205F4A10700800E9
:10C260005E4B04E00A000500EDB25A55401C020086
:10C27000D2B2022AF6D3084601F0D1FB02F018FE32
:10C2800002F0F8FB8748047001F071F831BD80B509
:10C290000120FEF7BBFA84480178FB220A400270B5
:10C2A00001BD002800D0704780B5022043490870C6
:10C2B00003F04AF801BD10B504003E48407C002858
:10C2C00015D1424841680A0AA3689A70A268D170E1
:10C2D00080680A21FDF7F3FA010AA2681171A168CA
:10C2E00048710620E0602000FEF7DAFD10BDFEF781
:10C2F00059FE10BD10B500242100002829D10420CA
:10C300002D4A107003202D4A107004E02C480A00BA
:10C31000D2B28454491C0800C0B20728F6D30120C9
:10C320002B4908702B490870704800680521FDF7FB
:10C33000C6FA6F490860FF2027490870200004E012
:10C3400026490200D2B28C54401C0100C9B2022915
:10C35000F6D310BD0400FA0580B50221C160FEF7D6
:10C360009FFD01BD00210A00002800D0704710B5D4
:10C370000120114B1870114B187004E0104B140081
:10C38000E4B21955521C1300DBB2072BF6D3104A46
:10C390001070FF20104A1070080004E00F4A0300DC
:10C3A000DBB2D154401C0200D2B2022AF6D3FFF70E
:10C3B0000BFF10BD5404002071040020590100201F
:10C3C0006C0100200CED00E028080020702E010018
:10C3D0007004002050010020530100205A01002069
:10C3E0001CB5040068462168497801702168897885
:10C3F00041702168C9788170FFF7D2FC1321C943CD
:10C40000884204D131212000FEF732FD13BD0028FF
:10C4100004D10120E0602000FEF742FD13BD70B59D
:10C420000600AB48C488CD4D22002969280002F0DF
:10C43000C9FE0021300004E06B5C921C5354491C7F
:10C44000C9B2230082689942F6DB911CC918816049
:10C45000C168A41C0919C160FEF722FD70BD7CB53E
:10C46000060079480078694608709948C48ACE4D1C
:10C470002200280002F0A6FE0021300004E06B5CE0
:10C48000921C5354491CC9B2230082689942F6DBBE
:10C49000911CC9188160C168A41C0919C160FEF70C
:10C4A000FFFC73BD310800207304002070B5060046
:10C4B0008748C48CCE4D2200E96A280002F082FE33
:10C4C0000021300004E06B5C921C5354491CC9B23B
:10C4D000230082689942F6DB911CC9188160C1680B
:10C4E000A41C0919C160FEF7DBFC70BD9830010087
:10C4F0008404002070B506007548C48ECE4D22001D
:10C50000290020312800103002F05CFE00213000AC
:10C5100006E02B0010335B5C921C5354491CC9B2DB
:10C52000230082689942F4DB911CC9188160C168BC
:10C53000A41C0919C160FEF7B3FC70BD70B50600FC
:10C54000AC480488AA4D2200696A28001C3002F019
:10C5500039FE0021300006E02B001C335B5C921C8E
:10C560005354491CC9B2230082689942F4DB911CE0
:10C57000C9188160C168A41C0919C160FEF790FC4C
:10C5800070BD70B50600AD480488CE4D220029006C
:10C590000831280002F016FE0021300004E06B5C38
:10C5A000921C5354491CC9B2230082689942F6DB9D
:10C5B000911CC9188160C168A41C0919C160FEF7EB
:10C5C0006FFC70BD70B50600AD480488BE4D2200FA
:10C5D000BE49280002F0F6FD0021300004E06B5C4B
:10C5E000921C5354491CC9B2230082689942F6DB5D
:10C5F000911CC9188160C168A41C0919C160FEF7AB
:10C600004FFC70BD70B50600B1480488C64D2200CD
:10C61000DE214902280002F0D5FD0021300004E0AF
:10C620006B5C921C5354491CC9B223008268994226
:10C63000F6DB911CC9188160C168A41C0919C1608E
:10C64000FEF72EFC70BD00005901002070B50600F9
:10C65000B6480488C44D22000021280002F029FEBB
:10C660000021300004E06B5C921C5354491CC9B299
:10C67000230082689942F6DB911CC9188160C16869
:10C68000A41C0919C160FEF70BFC70BD70B5060053
:10C69000B6480488C64D220029001031280002F057
:10C6A00091FD0021300004E06B5C921C5354491C46
:10C6B000C9B2230082689942F6DB911CC9188160D7
:10C6C000C168A41C0919C160FEF7EAFB70BD000037
:10C6D0008C28010070B50600B6480488444D22003D
:10C6E000A96A28000C3002F06DFD0021300006E040
:10C6F0002B000C335B5C921C5354491CC9B22300C1
:10C7000082689942F4DB911CC9188160C168A41C3D
:10C710000919C160FEF7C4FB70BD70B50600B848CA
:10C720000488454D220029002031280002F04AFDEE
:10C730000021300004E06B5C921C5354491CC9B2C8
:10C74000230082689942F6DB911CC9188160C16898
:10C75000A41C0919C160FEF7A3FB70BDA000002056
:10C7600070B50600A7480488214D2200696A280098
:10C77000143002F027FD0021300006E02B001433B6
:10C780005B5C921C5354491CC9B2230082689942D5
:10C79000F4DB911CC9188160C168A41C0919C1602F
:10C7A000FEF77EFB70BD00003408002070B5060067
:10C7B000AB480488BD4D220029000831280002F052
:10C7C00001FD0021300004E06B5C921C5354491CB5
:10C7D000C9B2230082689942F6DB911CC9188160B6
:10C7E000C168A41C0919C160FEF75AFB70BD0000A6
:10C7F00070000020D228010070B50600AC4DBF4C7F
:10C800002A8A1121200002F054FD0021300004E0AA
:10C81000625C9B1C5A54491CC9B22A881600836862
:10C82000B142F5DB991C89198160C168921C891895
:10C83000C160FEF735FB70BD00000020E22801005A
:10C8400070B50600AE480488C54D220015212800A9
:10C8500002F02FFD0021300004E06B5C921C535469
:10C86000491CC9B2230082689942F6DB911CC918A1
:10C870008160C168A41C0919C160FEF711FB70BD7D
:10C88000F228010070B50600B6480488B64D2200B3
:10C890001921280002F00DFD0021300004E06B5C3E
:10C8A000921C5354491CC9B2230082689942F6DB9A
:10C8B000911CC9188160C168A41C0919C160FEF7E8
:10C8C000EFFA70BD600000200C08002010BC0100D1
:10C8D0000229010038B50500A44C012002F09FFE9A
:10C8E000392148430A21FCF7EAFFAF2189004018AB
:10C8F0006421FCF7E4FF20700021280004E0625C62
:10C900009B1C5A54491CC9B2B74A12881500836847
:10C91000A942F4DB991C49198160C168921C8918ED
:10C92000C160FEF7BDFA31BD700700201229010079
:10C9300038B5AE49AE4A12780A70002204E08B5C2A
:10C94000A41CA354521CD2B2C24B1B881D00846885
:10C95000AA42F4DBA11C49198160C1689B1CC9185B
:10C96000C160FEF79DFA31BDBC0000202229010004
:10C9700038B5B9490A88B94913004B70120A0A70D0
:10C98000002204E08B5CA41CA354521CD2B2B54B11
:10C990001B881D008468AA42F4DBA11C4919816030
:10C9A000C1689B1CC918C160FEF77AFA31BD00004E
:10C9B000300000203229010010B50400A84800888A
:10C9C000042814D1002105E0A2685218927842543C
:10C9D000491CC9B2A448C288A44813009942F3DB99
:10C9E000002102F083FC0320A149C86003E072210A
:10C9F0009F48FEF73DFA2000FEF752FA10BD0000F6
:10CA000042290100522901001CB50400AA206946F0
:10CA1000087093480088042819D1002105E0A26815
:10CA2000521892784254491CC9B28F48C28A33487E
:10CA300013009942F3DB112102F058FC01222D2151
:10CA4000684602F053FC03208949C86003E0722164
:10CA50008748FEF70DFA2000FEF722FA13BD00000A
:10CA60006229010010B504007D480088042814D113
:10CA7000002105E0A268521892784254491CC9B2BC
:10CA80007948C28C364813009942F3DB152102F035
:10CA90002DFC03207649C86003E072217448FEF73C
:10CAA000E7F92000FEF7FCF910BD0000500000205F
:10CAB0007229010010B5040069480088042814D1C7
:10CAC000002105E0A268521892784254491CC9B26C
:10CAD0006548C28E244813009942F3DB192102F005
:10CAE00005FC03206249C86003E072216048FEF73C
:10CAF000BFF92000FEF7D4F910BD0000D0000020DF
:10CB000082290100F1B500273C00006880789B492C
:10CB10000D7805403E0007E03000C0B2FFF77AFA1A
:10CB2000284000D0641C761C3000C0B20828F3D323
:10CB30009248007800998968887000988068C7706A
:10CB4000200080B2000A0099896808710098806806
:10CB5000447106200099C8600098FEF7A1F9F1BD64
:10CB6000D400002092290100340700203208002060
:10CB7000F8B50025016889782E000400009101E0D5
:10CB8000761CF6B2082E1FD23000FFF743FA0921B7
:10CB9000014000980A000240F2D0B148B20080582B
:10CBA000AA0003001B0CA768BF18FB70030AA76844
:10CBB000BF183B71A3689B185871A06880188171D9
:10CBC0006D1CADB23F2DDBDB200001684978826827
:10CBD0005170BA49097882689170A900C91CC16076
:10CBE000FEF75EF9F1BD0000A22901003308002024
:10CBF0007306002070B5614909788268917000253C
:10CC000004001EE09648A9004058AE000100090C3F
:10CC1000A2689219D170010AA26892191171A168D3
:10CC2000891948712800C0B2FFF7F4F9A168891D7D
:10CC30008855A068801D8019017809220A40027079
:10CC40006D1C082DDED320002321C160FEF728F9DA
:10CC500070BD0000B2290100C20700202A08002090
:10CC6000C2010020C2290100442D0100BC000020A7
:10CC700054040020FEB50026FF2469460E700168AA
:10CC80004A796B465A708A781204CB781B02134398
:10CC9000097919433500070001911AE02800C0B254
:10CCA000072815D1012631213800FEF7E1F80FE001
:10CCB00001986B492A00D2B2920089588842EDD17E
:10CCC0002800C0B2FFF7A6F9B96848712C00082502
:10CCD0006D1C2800C0B20828EAD33D0020003100B6
:10CCE0003ED169464978012901D0FF2933D101217C
:10CCF000AA6891710321AA68D171C0B2FEF74BFEF8
:10CD0000FF2828D0B5490A78AB681A724A78AB6810
:10CD10005A72844A8300181840001018827BAB684E
:10CD20009A728A78AB68DA72CA78AB681A73C27B77
:10CD3000AB685A730A79AB689A734979AA68D17358
:10CD4000018A090AAA681174008AA9684874122025
:10CD50006946087004E031212800FEF789F80126B1
:10CD6000002E06D168460078E8602800FEF798F8A3
:10CD7000F7BD2800FEF794F8F7BD0000D2010020AF
:10CD8000FEB50026FF2469460E7001684A796B469D
:10CD90005A708A781204CB781B021343097919431D
:10CDA0003500070001911AE02800C0B2072815D10C
:10CDB000012631213800FEF75BF80FE00198284981
:10CDC0002A00D2B2920089588842EDD12800C0B220
:10CDD000FFF720F9B96848712C0008256D1C280060
:10CDE000C0B20828EAD3200031002BD16946497827
:10CDF000012901D0FF2920D1C0B2FEF7CCFDFF28C8
:10CE00001BD09E490A78BB689A71464A830018185D
:10CE100040001018C27ABB68DA714A78BB681A728F
:10CE2000027BBB685A728978BA689172407BB96894
:10CE3000C8720C206946087004E031213800FEF702
:10CE400017F80126002E06D168460078F8603800F1
:10CE5000FEF726F8F7BD3800FEF722F8F7BD000010
:10CE6000DC2E0100F3B40D68496800231C0000901B
:10CE7000280019E003250E014F0977407E182F0086
:10CE80002740BF00D759E7197740C019874EA4192A
:10CE90000601470977403E18E70A3D40AD00555965
:10CEA0006519754049195B1C009DAB42E2D3019A9C
:10CEB0001060019A5160F6BC70470000D20100205A
:10CEC00010B50C007A4A86490B7813604B78536092
:10CED0008B789360C978D1600178090611610B469F
:10CEE000417809041943116183781B020B431361D4
:10CEF000C07818431061C143516111001031022004
:10CF0000FFF7B0FF010E21700100090C6170010AEA
:10CF1000A170E070002010BD80B57248FFF7D0FF0F
:10CF200001BD00003405002010B56F490A6892B2B7
:10CF30006C4913120B7013004B7053108B709210CE
:10CF4000CA7011220A7022224A7033228A70442247
:10CF5000CA700268527883685A70002206E08B5CBF
:10CF6000624CA468A41CA354521C92B2604B1B696F
:10CF70009A42F4D39B1CC360FDF792FF10BD7CB5B1
:10CF800006000024250069460220FFF7C5FF09E0DE
:10CF90003168091989786A46125D914201D06D1C89
:10CFA0000400641C524880688442F1D32D060CD1E1
:10CFB00001205049087001460220FEF759FA02206C
:10CFC000F0603000FDF76CFF73BD00210220FEF71A
:10CFD0004FFA35213000FDF74BFF73BD8030010063
:10CFE00038B50400414D28688078012804D101F04B
:10CFF0005FFF01F03FFD0EE0022803D1002000F0AA
:10D000000EFD08E0032806D1002000F008FD01F025
:10D010004FFF01F02FFD687C002805D10220E06061
:10D020002000FDF73DFF31BDFDF7BCFF31BD38B538
:10D0300004002E4D28688078012804D101F04AFFB1
:10D0400001F021FD0EE0022803D1002000F014FDC4
:10D0500008E0032806D1002000F00EFD01F03AFFA1
:10D0600001F011FD687C002805D10220E06020005D
:10D07000FDF716FF31BDFDF795FF31BD9C30010076
:10D0800010B5040001201C49087000F070F9FEF78B
:10D09000A9FF1648407C002805D10220E06020004E
:10D0A000FDF7FEFE10BDFDF77DFF10BDB979379E7F
:10D0B0000407002010B5040000200F49087000F09C
:10D0C0005AF9FEF7A1FF0948407C002805D102204B
:10D0D000E0602000FDF7E4FE10BDFDF763FF10BD2A
:10D0E0000CBC01001008002018E000E054040020EF
:10D0F0004C2B010028080020310800200020604946
:10D1000002000A704880704780B500F008F90128D5
:10D1100004D101210020FEF726FD01BD022803D124
:10D1200002210020FEF71FFD01BD80B500F0FCF8D4
:10D13000012804D101210846FEF715FD01BD022892
:10D1400003D102210120FEF70EFD01BD80B500F0E4
:10D15000F0F8012804D101210220FEF704FD01BDF1
:10D16000022803D102210846FEF7FDFC01BD80B56F
:10D1700000F0E4F8012804D101210320FEF7F3FCBC
:10D1800001BD022803D102210320FEF7ECFC01BD02
:10D1900080B500F0D8F8012804D101210420FEF761
:10D1A000E2FC01BD022803D102210420FEF7DBFCD2
:10D1B00001BD80B500F0CCF8012804D10121052083
:10D1C000FEF7D1FC01BD022803D102210520FEF7A4
:10D1D000CAFC01BD80B500F0C0F8012804D10121CE
:10D1E0000620FEF7C0FC01BD022803D10221062063
:10D1F000FEF7B9FC01BD80B500F0B4F8012804D1F8
:10D2000001210720FEF7AFFC01BD022803D1022156
:10D210000720FEF7A8FC01BD19480078704770B5DB
:10D22000002425002600FEF796FA022800D10125E9
:10D2300000F0A4F9134940181349884200D201268E
:10D240000F48002D05D0002E03D04188491C418095
:10D2500000E04480418896225200914201DB012186
:10D26000017070BD38B5FEF776FA0400074D2878D6
:10D27000844203D0022C01D1FEF776FF2C7031BD21
:10D2800014080020D8DCFFFF591B000035080020DF
:10D2900080B5FFF733FF01BD10B5002407E000BFE4
:10D2A00007A02100C9B2890040588047641C2000B3
:10D2B000C0B20828F3D3FFF7D5FFFFF7B0FF10BDCA
:10D2C00009D100002BD100004DD100006FD100002A
:10D2D00091D10000B3D10000D5D10000F7D10000FA
:10D2E00080B5002208212648FEF7BEFA01BD244978
:10D2F000087070472249487070472149887070470C
:10D300001F49C87070471E49087170471C49487111
:10D3100070471B49887170471949C871704718498F
:10D32000087800220A7070471549487800224A7030
:10D3300070471349887800228A7070471049C8786E
:10D340000022CA7070470E49087900220A7170479E
:10D350000B49487900224A717047094988790022AF
:10D360008A7170470649C8790022CA717047012046
:10D370000449087070470020024908707047000097
:10D38000040800203908002070B500242500FFF7AC
:10D3900043FF0600FEF7E2F9022800D00125012E26
:10D3A00002D1012D00D10124200070BD10B5754CB3
:10D3B000FFF7EAFF01284CD1606AA18B88420CD2AA
:10D3C000A189491CA181208A020089B2914206D319
:10D3D000A0810120FFF78BFF01E00020A081208CBD
:10D3E000616A88420CD2A18A491CA182208B02006A
:10D3F00089B2914206D3A0820120FFF77BFF01E0B2
:10D400000020A082E08B616A88420CD2E189491C2D
:10D41000E181608A020089B2914206D3E081022054
:10D42000FFF765FF01E00020E081606A618C8842BF
:10D430000CD2E18A491CE182608B020089B29142E0
:10D440000AD3E0820220FFF755FF10BD0020E082E2
:10D4500010BD0020E060606110BD10B5494C606AED
:10D460006421FCF72CFA6062C0B210BD10B5012037
:10D4700002F0D5F8434C6062392148430A21FCF799
:10D480001EFAAF218900401860622178092956D818
:10D4900001A2525C974400BF0A2A3E52A6A6A66289
:10D4A0007E8E6188814204D301202070002060704C
:10D4B00010BDE188884242D30720207000206070B0
:10D4C00010BD6188814237D36078401C6070C0B263
:10D4D000642836DB0CE00021A288904203D30320AD
:10D4E0002070617010BD617010BDA18888421DD28E
:10D4F000002060700220207010BDE18888421BD39C
:10D500006078401C6070C0B264281ADB0020607034
:10D510000820207010BD21898142F7D3002060705F
:10D520000920207010BD21898142EFD36078401C12
:10D530006070C0B2642804DB0020208010BD002091
:10D54000208010BD0F4908780C2814D801A2125C65
:10D55000974400BF0E0E12121216160E1A1A1A1E39
:10D560001E000020704702207047052070470820E9
:10D5700070470B2070470020087070470148406AD0
:10D580007047000090010020F8B5EFF31080009084
:10D5900072B600273800C84C012627E06078FE21CB
:10D5A0000140617021E02218117111731177401C44
:10D5B0000828F8DB20001C3060620820208508461F
:10D5C00000F05AFA280040093100084202D03846DB
:10D5D00000F014FA6078310001436170280080097E
:10D5E000304202D0384600F01AFA3046002809D1FD
:10D5F000B24805782800C009D0D0380020602076D5
:10D600003900D5E7009880F31088F1BDF8B5060021
:10D61000092100F0ADF93700A74DEC19207E401C20
:10D620002076300001F0E6F8B8002D186878202147
:10D63000014369700121300000F0D7F9207E7900A4
:10D640009F4A525A13000700BB4213D36B781F0046
:10D65000BF09FF070ED4904204D1402018436870E0
:10D66000002020760521300000F02CF9300002F077
:10D6700028F8F1BDBC4A515A814207D30621300037
:10D6800000F020F9300002F01CF8F1BD00202076F7
:10D690006878BF2101406970300002F022F8F1BDC6
:10D6A00070B50400080002281AD1200001F0A2F889
:10D6B00025000121AD48405DFCF7D4F90921200087
:10D6C00000F056F90321200000F0FCF804267B4806
:10D6D000405D0009C00724D5200002F029F820E0B1
:10D6E00007291AD1200001F085F8250001219F4863
:10D6F000405DFCF7B7F90921200000F039F903215A
:10D70000200000F0DFF805266C48405D0009C007E6
:10D7100007D5200002F00CF803E0200000F061F9CA
:10D720000600300070BDF8B507000E00092100F0BA
:10D730001FF93D006048A900401800905E48441958
:10D74000002E06D0032E10D0052E1CD0062E2CD075
:10D7500030E00020A075E075380001F0A9FF0E212F
:10D760008248405DFCF77EF924E08048465D022156
:10D770003000FCF73BF90020A075E0750E21300069
:10D78000FCF770F916E000988078EF2101400098CE
:10D7900081700020A075E075380001F091FF0E2126
:10D7A0007248405DFCF75EF904E00E216F48405D71
:10D7B000FCF758F9380001F01DF80122AC48415D32
:10D7C000380000F0C3FFAA48405D2075A07D401CD2
:10D7D000A07501260098407840083100084215D015
:10D7E000009880780143009881703348E900401820
:10D7F0004179C8220A40310011434171217D0171F4
:10D80000380000F022F8E07D401CE0759948405D4A
:10D81000A17D88420AD3BE48405DE17D884205D3A0
:10D820000021380000F04EF8092606E002213800F9
:10D8300000F048F8380001F041FF00988078FD21A1
:10D840000140009881703000F2BD80B500F001F811
:10D8500001BD10B4EFF3108172B6002208E0164B40
:10D860000400E4001B199C1824799B181C77521C97
:10D87000082AF4DB81F3108810BC704730B4EFF352
:10D88000108272B6002913D08B88002B10D0092B80
:10D890000EDA002309E0084C0500ED006419E418D5
:10D8A0000D68ED5C25735B1C9BB28C88A342F2DB98
:10D8B00082F3108830BC7047040600200D3101004F
:10D8C000C2300100062900D9704710B501A2525C90
:10D8D000974400BF081A2E42566A7E004400A048B2
:10D8E000005B0521FBF7E8FF9E49085310BD44008B
:10D8F0009D48005B0521FBF7DFFF9A490919488025
:10D9000010BD44009948005B0521FBF7D5FF954900
:10D910000919888010BD44009548005B0521FBF77C
:10D92000CBFF90490919C88010BD44009148005BA5
:10D930000521FBF7C1FF8B490919088110BD44007F
:10D940008D48005B0521FBF7B7FF8649091948811F
:10D9500010BD44008948005B0521FBF7ADFF8149FC
:10D960000919488110BD0000C43001000E310100CA
:10D97000092935D801A2525C974400BF0A14202C13
:10D980003844446464500021764A40001152704784
:10D990000021744A40001018418070470021714AEC
:10D9A000400010188180704700216E4A4000101816
:10D9B000C180704700216B4A4000101801817047F8
:10D9C0000021684A400010184181704765494000B5
:10D9D00008180021018041808180C180018141813E
:10D9E0007047AC498000085C7047EFF3108272B654
:10D9F000A84B8000195482F310887047EFF3108110
:10DA000072B6002808D1A4480078C00904D0A14803
:10DA1000427802231343437081F31088704710B596
:10DA2000EFF3108472B600281DD19B480078C0091E
:10DA300019D00020FFF7D5FF010004D100210846CE
:10DA4000FFF771FE01000020FFF7CFFF91488178BA
:10DA5000CA0708D5FE220A408270010024318F488F
:10DA60000088FCF72DF884F3108810BD000000003A
:10DA7000103101001131010038B5EFF3108472B696
:10DA8000002822D1844805782800C0091DD00A2129
:10DA90000020FFF7AAFF7F488178FE220A408270AB
:10DAA00000210A00C28209211046FFF761FF002011
:10DAB00000F0A0FE28000009C00702D5002001F0F8
:10DAC0003BFE00210846FFF790FF84F3108831BD2C
:10DAD00000281CD170480078C00918D0080002281E
:10DAE00009D16C488278D20905D0C2789206920E8C
:10DAF00080231343C370012909D166488178C9097D
:10DB000005D1C1788906890E40220A43C270704748
:10DB10001231010010B5EFF3108472B65D490200B6
:10DB200092008918CA7813009B09022B09D192062A
:10DB3000920ECA708A785206520E8A7000F020F84F
:10DB40000AE0012B08D19206920ECA708A788023CF
:10DB500013438B7000F083F884F3108810BD00002D
:10DB6000B4300100AC070020B6300100B83001002D
:10DB7000BA300100BC300100BE300100C0300100ED
:10DB800070B50400EFF3108572B6FFF72AFF022884
:10DB900008D0032823D004280ED0052829D008282F
:10DBA0003AD03FE001212000FFF7E2FE01212000F2
:10DBB000FFF788FE092639E00E21A5482200805C87
:10DBC000FBF750FF03212000FFF7D2FE06212000C3
:10DBD000FFF7A9FD0600200001F0A3FD26E00121CA
